:100000000C9438000C941B010C941B010C941B01E4
:100010000C941B010C941B010C941B010C941B01F0
:100020000C941B010C941B010C941B010C941B01E0
:100030000C941B010C941B010C941B010C941B01D0
:100040000C94BB000C941B010C941B010C941B0121
:100050000C941B010C941B010C941B010C941B01B0
:100060000C941B010C941B01AAAAAAAAAAAAAAAAC8
:1000700011241FBEC0E0D8E0DEBFCDBF78D004D0D1
:1000800049D0EDD00000FECFDF92EF92FF920F93A8
:100090001F93CF93DF9322E0E22E21E0F22E20E0A7
:1000A000E21621E0F206B1F000EB12E0C0E0D1E090
:1000B000C80101965DD0D82EC8015AD02D2D30E050
:1000C000322F2227282B299339930E5F1F4FEC16CE
:1000D000FD0671F782E091E08E50914099F04EE07C
:1000E00051E0445051404E7F4E5F5F4F60E070E002
:1000F00082E091E0DF91CF911F910F91FF90EF90FF
:10010000DF90CBC0DF91CF911F910F91FF90EF90C7
:10011000DF9008950F931F93CF9382E691E021E043
:100120008036920799F08C01C801019721D0C82F21
:1001300002501109C8011CD0EC2FF0E0FE2FEE2771
:10014000E82B099581E00036180771F7CF911F91D0
:100150000F910895AAAAAAAAAAAAAAAAAAAAAAAA6A
:10016000220180E090E065D080E090E02AC0089510
:10017000FC01849108951F920F920FB60F921124E3
:100180008F939F93AF93BF93809108019091090142
:10019000A0910A01B0910B0180589F4FAF4FBF4F04
:1001A0008093080190930901A0930A01B0930B0179
:1001B000BF91AF919F918F910F900FBE0F901F90A5
:1001C000189580910701811108C081E085BB80935B
:1001D0006E0092E095BD8093070108950F931F93E1
:1001E00096B5409108015091090160910A01709102
:1001F0000B0186B58917A0F0892F90E0019696959E
:1002000087958A019B01082BC901B801209107013C
:10021000211103C060E070E0CB011F910F910895A0
:10022000409108015091090160910A0170910B0100
:10023000E4CF789408951F920F920FB60F92112475
:100240000000FECFECE0F1E085E2808380E2818374
:100250002D98E081F0E0829180628083089581DFB3
:10026000C0910C0110910D01D0E088818127888315
:10027000B5DF6B017C0120E4C20E22E4D21E2FE028
:10028000E21EF11CABDFDC01CB018C199D09AE092C
:10029000BF09B7FFEACF0000F5CFDC0101C06D93C5
:1002A00041505040E0F70895AAAAAAAAAAAAAAAA69
:0202B000050146
:040000030000016098
:00000001FF
