:100000000C9438000C9476030C9476030C947603CD
:100010000C9476030C9476030C9476030C9476037C
:100020000C9476030C9476030C9476030C9476036C
:100030000C9476030C9476030C9476030C9476035C
:100040000C943E010C9476030C9476030C94760386
:100050000C9476030C9476030C9476030C9476033C
:100060000C9476030C947603AAAAAAAAAAAAAAAA0E
:1000700011241FBEC0E0D8E0DEBFCDBFF6D006D051
:100080006ED13DD06CD14CD36AD1FECFCF92DF92EE
:10009000FF920F931F93CF93DF9380E0C82E81E0F0
:1000A000D82E20E0C21621E0D206A1F000E317E02E
:1000B000C0E0D1E0C801DCD0F82EC8010196D8D04C
:1000C0002F2D30E0382B299339930E5F1F4FCC161C
:1000D000DD0681F780E091E08253914041F0E0E05D
:1000E000F1E01192119281E0E233F807D1F7DF914C
:1000F000CF911F910F91FF90DF90CF9008950F93B4
:100100001F93CF9384E491E021E08034920789F03B
:100110008C0102501109C801ABD0C82FC80101964B
:10012000A7D0EC2FF0E0F82B099581E000341807F8
:1001300081F7CF911F910F910895AAAAAAAAAAAAFE
:100140007D038D0395B180E2892785B908950F93CA
:100150001F93C7D00091000110910101209102016D
:1001600030910301AB01BC01401B510B620B730BBF
:1001700077FD12C0D901C801805C9D4BA04FBF4FD5
:100180008093000190930101A0930201B0930301B9
:1001900095B180E2892785B91F910F91089580E07C
:1001A00090E092D080E090E0C4C00F931F93CF9373
:1001B000DF93EC0196D08B019C01088319832A837D
:1001C0003B831C821D821E821F82CE01DF91CF9154
:1001D0001F910F910895CF93DF93CDB7DEB760974E
:1001E0000FB6F894DEBF0FBECDBFCE01019660966C
:1001F0000FB6F894DEBF0FBECDBFDF91CF9108954B
:1002000008950000FECF80E090E0089580E090E047
:1002100008950000FECF0000FECF0000FECF8FEF5C
:100220009FEF089581E090E0089580E090E00895C8
:100230008FEF9FEF08958FEF9FEF089580E090E09C
:10024000089580E090E0089580E090E0089580E0D7
:1002500090E0089581E090E008958FEF9FEF08957A
:10026000089580E090E00895089580E090E063C0F4
:10027000FC018491089584E091E008951F920F920B
:100280000FB60F9211248F939F93AF93BF938091DA
:10029000050190910601A0910701B09108018058D5
:1002A0009F4FAF4FBF4F8093050190930601A093DE
:1002B0000701B0930801BF91AF919F918F910F906B
:1002C0000FBE0F901F901895D6DFFC0120812111E1
:1002D00007C021E025BB20936E0032E035BD2083AE
:1002E0000895C9DFFC0180818823F9F036B580913B
:1002F000050190910601A0910701B091080126B572
:10030000231788F48091050190910601A0910701BF
:10031000B091080130E02F5F3F4F36952795BC0123
:10032000CD01622B0895232FF5CF60E070E0CB0163
:10033000089578940895CF93DF931F92CDB7DEB7D9
:1003400084B38983898114BAA895E0E6F0E088E156
:1003500080838BE080830F90DF91CF910895A895E3
:10036000089589E191E05ED18AE091E05BC1CF928E
:10037000DF92EF92FF920F931F9385EEC82ED12C40
:10038000E12CF12C00ED17E020E030E047EA50E0EE
:1003900062EA70E08AE091E0EFD09DE1C92E92E040
:1003A000D92EE12CF12C00E21EE420E030E045E7FC
:1003B00053E064E773E089E191E0DED081E080936F
:1003C000280181EB91E01F910F91FF90EF90DF905A
:1003D000CF9019CF80912801811101C0C8DF8AE038
:1003E00091E0089580912801882381F18AE091E0CD
:1003F0001AD189E191E017D175D180912801882324
:10040000A1F0CAE0D1E0CE0112D1811115C02F9622
:1004100081E0C832D807B9F7809128018823A1F07C
:1004200062D1809128018111ECCFA1DF8091280158
:100430008111E7CF9CDFE5CF80912801882321F04F
:10044000C852D140D1F6ECCF92DFFACF90DF809145
:1004500028018111CBCF8BDFC9CF0F931F93CF938F
:10046000DF93823091052CF0DF91CF911F910F9196
:1004700008958B01EC01809128018823C1F08FE061
:100480008C9FF0018D9FF00D1124E65FFE4FF894D4
:1004900024853585D8018D919C91822B932B95874E
:1004A00084877894DF91CF911F910F9108955FDF3A
:1004B000E6CFEF92FF920F931F93CF93DF9300D07D
:1004C000CDB7DEB77C01FCD08C0190912801992337
:1004D000C9F081E008321807D1F0F894F80184855A
:1004E00095859A838983789489819A81F70191838C
:1004F00080830F900F90DF91CF911F910F91FF900C
:10050000EF90089534DF81E00832180731F7F701E2
:1005100011821082EECFEF92FF920F931F93CF9331
:10052000DF9300D0CDB7DEB77C01CAD08C019091AB
:1005300028019923F9F081E00832180791F0F701BA
:1005400080819181809590959A838983F89489819F
:100550009A81F801248535858223932395878487A2
:1005600078940F900F90DF91CF911F910F91FF9092
:10057000EF900895FCDEDFCFCF92DF92EF92FF92F3
:100580000F931F93CF93DF93EC01798368835B8391
:100590004A830C831D832E833F83A3DEC60ED71EA2
:1005A000E81EF91EC886D986EA86FB861D861C864B
:1005B000809130018E878F5F80933001DF91CF91E2
:1005C0001F910F91FF90EF90DF90CF900895FC0165
:1005D000DB018D919C9111979183808312968D916F
:1005E0009C9113979383828314964D915D916D91A5
:1005F0007C911797448355836683778318964D9132
:100600005D916D917C911B974087518762877387BD
:100610001C968D919C911D97958784871E968C9131
:10062000868708950895DC01ED91FC9109940F935C
:100630001F93CF93DF93EC018C859D85892B99F4D3
:1006400050DE088519852A853B85DC01CB01801B9E
:10065000910BA20BB30BB7FF1FC080E0DF91CF91CE
:100660001F910F9108958E8580933001EA81FB815F
:10067000099537DE088519852A853B85DC01CB0184
:10068000801B910BA20BB30BB7FF06C081E0DF917B
:10069000CF911F910F9108958C819D81AE81BF8173
:1006A000080F191F2A1F3B1F088719872A873B87B6
:1006B0008E8580933001EA81FB81099581E0E7CF47
:1006C000CF93C091300186DEC23020F083DE4E969B
:1006D000CF9108957FDE2FE0C29F800D911D1124E0
:1006E000CF91089508953BCE089508951F920F92DB
:1006F0000FB60F9211240000FECFF3DDDC01CB0119
:10070000805C9D4BA04FBF4F8093000190930101EF
:10071000A0930201B093030108952D98259A08959E
:100720003EDD60DE80E090E00895AAAAAAAAAAAA07
:0400000300000140B8
:00000001FF
