:040000000E94020058
:1000040011241FBEC0E0D8E0DEBFCDBF0E941100A6
:100014000E941D000E9426000E943300FFCF11E0C1
:10002400A0E0B1E0EEE3F2E002C005900D92AA3048
:10003400B107D9F7089511E0ACE0B1E001C01D9219
:10004400AC30B107E1F7089510E0C6E6D0E004C093
:100054002297FE010E94AF00C436D107C9F7089564
:10006400A200CF93DF9300D000D0CDB7DEB71982C2
:100074001A821B821C828AE091E00E94FD000DC05E
:100084000000000089819A81AB81BC810196A11D89
:10009400B11D89839A83AB83BC8389819A81AB81A7
:1000A400BC81803C27E2920729E0A207B10540F316
:1000B40019821A821B821C828AE091E00E94FD0050
:1000C4000DC00000000089819A81AB81BC8101963A
:1000D400A11DB11D89839A83AB83BC8389819A81D5
:1000E400AB81BC81803C27E2920729E0A207B105DD
:1000F40040F319821A821B821C82BDCFCF93DF93F7
:1001040000D000D0CDB7DEB79A8389837C836B831C
:1001140089819A818130910561F48B819C818F3F23
:100124002FEF920731F440E265E28AE091E00E9409
:10013400B3000F900F900F900F90DF91CF9108951F
:10014400CF93DF93CDB7DEB76FEF7FEF81E090E021
:100154000E948000DF91CF9108950590F491E02DE5
:100164000994CF93DF9300D000D01F92CDB7DEB7B0
:100174009B838A836C834D838A819B812C81FC01C0
:1001840020838A819B812D81FC0121838A819B812B
:10019400FC018081882F90E09C018A819B81FC0175
:1001A4008081882F90E0FC0140818A819B81FC0141
:1001B400818180958423F90180838A819B81FC015C
:1001C4008081815089838981882F90E09C01898175
:1001D400882F90E0FC0140818A819B81FC01818110
:1001E400842BF90180830F900F900F900F900F9044
:1001F400DF91CF910895CF93DF9300D0CDB7DEB7D1
:100204009A83898389819A81FC018081882F90E077
:100214009C0189819A81FC018081882F90E0FC01F6
:10022400408189819A81FC0181818427F90180833D
:0A0234000F900F90DF91CF91089515
:0A023E002501020408102040800092
:040000030000006495
:00000001FF
