:100000000C9438000C9499030C9499030C94990364
:100010000C9499030C9499030C9499030C949903F0
:100020000C9499030C9499030C9499030C949903E0
:100030000C9499030C9499030C9499030C949903D0
:100040000C9461010C9499030C9499030C949903FA
:100050000C9499030C9499030C9499030C949903B0
:100060000C9499030C949903AAAAAAAAAAAAAAAAC8
:1000700011241FBEC0E0D8E0DEBFCDBF19D106D02D
:1000800091D13DD08FD191D38DD1FECFCF92DF9240
:10009000FF920F931F93CF93DF938AE0C82E81E0E6
:1000A000D82E20E0C21621E0D206A1F000EC17E025
:1000B000C0E0D1E0C801FFD0F82EC8010196FBD006
:1000C0002F2D30E0382B299339930E5F1F4FCC161C
:1000D000DD0681F78AE091E08654914041F0EAE044
:1000E000F1E01192119281E0E634F807D1F7DF9147
:1000F000CF911F910F91FF90DF90CF9008950F93B4
:100100001F93CF9384E491E021E08034920789F03B
:100110008C0102501109C801CED0C82FC801019628
:10012000CAD0EC2FF0E0F82B099581E000341807D5
:1001300081F7CF911F910F910895AAAAAAAAAAAAFE
:10014000AE03D203EFE0F1E0A381B0E09C918481A3
:1001500089278C93928181E0892782830895CF92A9
:10016000DF92EF92FF92E0D0C0901401D090150181
:10017000E0901601F0901701AB01BC014C195D092C
:100180006E097F0977FD29C0E0911201F0E030810E
:1001900020911301232720833091110121E0322780
:1001A00030931101D701C601805C9D4BA04FBF4F1A
:1001B0008093140190931501A0931601B093170139
:1001C000E0910D01F0E0908180910E0189278083FC
:1001D00080910C01282720930C01FF90EF90DF9075
:1001E000CF90089580E090E092D080E090E0C4C08D
:1001F0000F931F93CF93DF93EC0196D08B019C015B
:10020000088319832A833B831C821D821E821F82DE
:10021000CE01DF91CF911F910F910895CF93DF937E
:10022000CDB7DEB760970FB6F894DEBF0FBECDBF77
:10023000CE01019660960FB6F894DEBF0FBECDBF1B
:10024000DF91CF91089508950000FECF80E090E007
:10025000089580E090E008950000FECF0000FECFFA
:100260000000FECF8FEF9FEF089581E090E00895AA
:1002700080E090E008958FEF9FEF08958FEF9FEF5C
:10028000089580E090E0089580E090E0089580E097
:1002900090E0089580E090E0089581E090E0089576
:1002A0008FEF9FEF0895089580E090E008950895FE
:1002B00080E090E063C0FC018491089588E191E0C2
:1002C00008951F920F920FB60F9211248F939F9350
:1002D000AF93BF938091190190911A01A0911B01D6
:1002E000B0911C0180589F4FAF4FBF4F80931901B1
:1002F00090931A01A0931B01B0931C01BF91AF9181
:100300009F918F910F900FBE0F901F901895D6DF81
:10031000FC012081211107C021E025BB20936E0044
:1003200032E035BD20830895C9DFFC018081882338
:10033000F9F036B58091190190911A01A0911B0135
:10034000B0911C0126B5231788F480911901909172
:100350001A01A0911B01B0911C0130E02F5F3F4FAB
:1003600036952795BC01CD01622B0895232FF5CF3B
:1003700060E070E0CB01089578940895CF93DF9307
:100380001F92CDB7DEB784B38983898114BAA8954B
:10039000E0E6F0E088E180838BE080830F90DF91DE
:1003A000CF910895A89508958DE291E05ED18EE1F8
:1003B00091E05BC1CF92DF92EF92FF920F931F9378
:1003C00085EEC82ED12CE12CF12C00ED17E020E0B9
:1003D00030E04FEA50E062EA70E08EE191E0EFD069
:1003E0009DE1C92E92E0D92EE12CF12C00E21EE411
:1003F00020E030E048E953E067E973E08DE291E006
:10040000DED081E080933C0184ED91E01F910F915B
:10041000FF90EF90DF90CF9019CF80913C01811138
:1004200001C0C8DF8EE191E0089580913C018823EE
:1004300081F18EE191E01AD18DE291E017D175D171
:1004400080913C018823A1F0CEE1D1E0CE0112D110
:10045000811115C02F9681E0CC33D807B9F7809170
:100460003C018823A1F062D180913C018111ECCF45
:10047000A1DF80913C018111E7CF9CDFE5CF809126
:100480003C01882321F0CC53D140D1F6ECCF92DF50
:10049000FACF90DF80913C018111CBCF8BDFC9CFA8
:1004A0000F931F93CF93DF93823091052CF0DF9150
:1004B000CF911F910F9108958B01EC0180913C0128
:1004C0008823C1F08FE08C9FF0018D9FF00D1124E7
:1004D000E25EFE4FF89424853585D8018D919C917C
:1004E000822B932B958784877894DF91CF911F91EE
:1004F0000F9108955FDFE6CFEF92FF920F931F9366
:10050000CF93DF9300D0CDB7DEB77C01FCD08C0158
:1005100090913C019923C9F081E00C331807D1F088
:10052000F894F801848595859A83898378948981E4
:100530009A81F701918380830F900F90DF91CF9183
:100540001F910F91FF90EF90089534DF81E00C33FD
:10055000180731F7F70111821082EECFEF92FF9268
:100560000F931F93CF93DF9300D0CDB7DEB77C01FD
:10057000CAD08C0190913C019923F9F081E00C33B1
:10058000180791F0F70180819181809590959A8369
:100590008983F89489819A81F8012485358582239D
:1005A00093239587848778940F900F90DF91CF9154
:1005B0001F910F91FF90EF900895FCDEDFCFCF9257
:1005C000DF92EF92FF920F931F93CF93DF93EC0193
:1005D000798368835B834A830C831D832E833F83E7
:1005E000A3DEC60ED71EE81EF91EC886D986EA8687
:1005F000FB861D861C86809144018E878F5F8093C9
:100600004401DF91CF911F910F91FF90EF90DF9008
:10061000CF900895FC01DB018D919C9111979183FE
:10062000808312968D919C91139793838283149665
:100630004D915D916D917C911797448355836683AD
:10064000778318964D915D916D917C911B974087B2
:100650005187628773871C968D919C911D97958712
:1006600084871E968C91868708950895DC01ED910C
:10067000FC9109940F931F93CF93DF93EC018C852A
:100680009D85892B99F450DE088519852A853B853F
:10069000DC01CB01801B910BA20BB30BB7FF1FC07A
:1006A00080E0DF91CF911F910F9108958E85809307
:1006B0004401EA81FB81099537DE088519852A8581
:1006C0003B85DC01CB01801B910BA20BB30BB7FF69
:1006D00006C081E0DF91CF911F910F9108958C8129
:1006E0009D81AE81BF81080F191F2A1F3B1F0887FC
:1006F00019872A873B878E8580934401EA81FB8195
:10070000099581E0E7CFCF93C091440186DEC230E6
:1007100020F083DE4E96CF9108957FDE2FE0C29FBA
:10072000800D911D1124CF91089508953BCE089519
:1007300008951F920F920FB60F9211240000FECF62
:100740000895FC01A381B0E09C91848189278C935A
:10075000928181E089278283089575CDEFE0F1E0F1
:10076000128284E091E09183808325E2238321E05B
:100770002483EAE0F1E01282918380838BE2838319
:1007800080E88483D1DDDC01CB01805C9D4BA04FF0
:10079000BF4F8093140190931501A0931601B0935D
:1007A000170108952898209A08951CDD3EDE80E008
:1007B00090E00895AAAAAAAAAAAAAAAAAAAAAAAA34
:0A07C00000000000A103A003AD0338
:0400000300000140B8
:00000001FF
