:100000000C9438000C941A040C941A040C941A04DE
:100010000C941A040C941A040C941A040C941A04E8
:100020000C941A040C941A040C941A040C941A04D8
:100030000C941A040C941A040C941A040C941A04C8
:100040000C94E2010C941A040C941A040C941A04F3
:100050000C941A040C941A040C941A040C941A04A8
:100060000C941A040C941A04AAAAAAAAAAAAAAAAC4
:1000700011241FBEC0E0D8E0DEBFCDBF9AD106D0AC
:1000800012D23DD010D29DD40ED2FECFCF92DF92AD
:10009000FF920F931F93CF93DF9388E2C82E81E0E6
:1000A000D82E20E0C21621E0D206A1F000ED19E022
:1000B000C0E0D1E0C80180D1F82EC80101967CD102
:1000C0002F2D30E0382B299339930E5F1F4FCC161C
:1000D000DD0681F788E291E08457914041F0E8E243
:1000E000F1E01192119281E0E437F807D1F7DF9146
:1000F000CF911F910F91FF90DF90CF9008950F93B4
:100100001F93CF9382E491E021E08034920789F03D
:100110008C0102501109C8014FD1C82FC8010196A6
:100120004BD1EC2FF0E0F82B099581E00034180753
:1001300081F7CF911F910F910895AAAAAAAAAAAAFE
:1001400083040895CF92DF92EF92FF920F931F9353
:100150006CD10091430110914401209145013091EF
:100160004601DC01CB01801B910BA20BB30BB7FD49
:100170003CC090913D019111A6C0299A81E0892748
:1001800080933D0190913A01992309F4A5C05F98AD
:1001900081E0892780933A01E0912B01F0912C01B5
:1001A000918181E0911101C080E080932A01811149
:1001B00095C084E6828390912A0181E0892780930B
:1001C0002A018091430190914401A0914501B09191
:1001D0004601805C9D4BA04FBF4F8093430190939D
:1001E0004401A0934501B09346011FD1C0903F0147
:1001F000D0904001E0904101F0904201AB01BC0180
:100200004C195D096E097F0977FD28C020913E01D8
:1002100031E0320F30933E01E0913001F091310135
:10022000243608F44EC034E6328331E0211101C097
:1002300030E030932F0120913E01253609F450C063
:10024000D701C60188539F4FAF4FBF4F80933F01E7
:1002500090934001A0934101B093420180913501F8
:100260008F5F8093350190913601981740F1289A5D
:1002700080913501843630F08091370180933601CA
:1002800010923501809132018F5F809332019091FD
:100290003301981790F02A9A80913201843630F019
:1002A0008091340180933301109232011F910F919C
:1002B000FF90EF90DF90CF9008952A98EDCF289887
:1002C000D7CF322FB1CF299881E0892780933D0184
:1002D00090913A0191115BCF5F9A5ACF80E06ACF3B
:1002E00010923E01ADCF80E090E092D080E090E0AF
:1002F000C4C00F931F93CF93DF93EC0196D08B0173
:100300009C01088319832A833B831C821D821E82E1
:100310001F82CE01DF91CF911F910F910895CF934E
:10032000DF93CDB7DEB760970FB6F894DEBF0FBE90
:10033000CDBFCE01019660960FB6F894DEBF0FBE1A
:10034000CDBFDF91CF91089508950000FECF80E0EA
:1003500090E0089580E090E008950000FECF000056
:10036000FECF0000FECF8FEF9FEF089581E090E079
:10037000089580E090E008958FEF9FEF08958FEF4C
:100380009FEF089580E090E0089580E090E0089568
:1003900080E090E0089580E090E0089581E090E0B2
:1003A00008958FEF9FEF0895089580E090E00895FD
:1003B000089580E090E063C0FC018491089587E493
:1003C00091E008951F920F920FB60F9211248F9310
:1003D0009F93AF93BF938091480190914901A09161
:1003E0004A01B0914B0180589F4FAF4FBF4F809350
:1003F000480190934901A0934A01B0934B01BF91EA
:10040000AF919F918F910F900FBE0F901F901895F5
:10041000D6DFFC012081211107C021E025BB2093FC
:100420006E0032E035BD20830895C9DFFC01808174
:100430008823F9F036B58091480190914901A09147
:100440004A01B0914B0126B5231788F480914801E9
:1004500090914901A0914A01B0914B0130E02F5F8A
:100460003F4F36952795BC01CD01622B0895232F70
:10047000F5CF60E070E0CB01089578940895CF93B4
:10048000DF931F92CDB7DEB784B38983898114BA15
:10049000A895E0E6F0E088E180838BE080830F9010
:1004A000DF91CF910895A89508958BE591E05ED1F5
:1004B0008CE491E05BC1CF92DF92EF92FF920F93B9
:1004C0001F9385EEC82ED12CE12CF12C0AEF10E001
:1004D00020E030E042EA50E061EA70E08CE491E034
:1004E000EFD09DE1C92E92E0D92EE12CF12C00E253
:1004F0001EE420E030E049E154E068E174E08BE57F
:1005000091E0DED081E080936A0185E592E01F9161
:100510000F91FF90EF90DF90CF9019CF80916A01FB
:10052000811101C0C8DF8CE491E0089580916A01D7
:10053000882381F18CE491E01AD18BE591E017D109
:1005400075D180916A018823A1F0CCE4D1E0CE017D
:1005500012D1811115C02F9681E0CA36D807B9F79C
:1005600080916A018823A1F062D180916A01811192
:10057000ECCFA1DF80916A018111E7CF9CDFE5CF4D
:1005800080916A01882321F0CA56D140D1F6ECCF80
:1005900092DFFACF90DF80916A018111CBCF8BDFA0
:1005A000C9CF0F931F93CF93DF93823091052CF027
:1005B000DF91CF911F910F9108958B01EC018091F4
:1005C0006A018823C1F08FE08C9FF0018D9FF00DB0
:1005D0001124E45BFE4FF89424853585D8018D9174
:1005E0009C91822B932B958784877894DF91CF9170
:1005F0001F910F9108955FDFE6CFEF92FF920F9367
:100600001F93CF93DF9300D0CDB7DEB77C01FCD032
:100610008C0190916A019923C9F081E00A3618078C
:10062000D1F0F894F801848595859A83898378942C
:1006300089819A81F701918380830F900F90DF91D8
:10064000CF911F910F91FF90EF90089534DF81E0DB
:100650000A36180731F7F70111821082EECFEF92B8
:10066000FF920F931F93CF93DF9300D0CDB7DEB7E8
:100670007C01CAD08C0190916A019923F9F081E044
:100680000A36180791F0F701808191818095909545
:100690009A838983F89489819A81F8012485358524
:1006A000822393239587848778940F900F90DF910E
:1006B000CF911F910F91FF90EF900895FCDEDFCF57
:1006C000CF92DF92EF92FF920F931F93CF93DF931E
:1006D000EC01798368835B834A830C831D832E83BB
:1006E0003F83A3DEC60ED71EE81EF91EC886D98634
:1006F000EA86FB861D861C86809172018E878F5F3D
:1007000080937201DF91CF911F910F91FF90EF9035
:10071000DF90CF900895FC01DB018D919C911197A2
:100720009183808312968D919C91139793838283FA
:1007300014964D915D916D917C91179744835583EB
:100740006683778318964D915D916D917C911B978F
:1007500040875187628773871C968D919C911D9766
:10076000958784871E968C91868708950895DC016D
:10077000ED91FC9109940F931F93CF93DF93EC01BC
:100780008C859D85892B99F450DE088519852A85ED
:100790003B85DC01CB01801B910BA20BB30BB7FF98
:1007A0001FC080E0DF91CF911F910F9108958E853A
:1007B00080937201EA81FB81099537DE08851985EE
:1007C0002A853B85DC01CB01801B910BA20BB30B6F
:1007D000B7FF06C081E0DF91CF911F910F9108957F
:1007E0008C819D81AE81BF81080F191F2A1F3B1F7D
:1007F000088719872A873B878E8580937201EA8153
:10080000FB81099581E0E7CFCF93C091720186DE2D
:10081000C23020F083DE4E96CF9108957FDE2FE028
:10082000C29F800D911D1124CF91089508953BCE54
:10083000089508951F920F920FB60F921124000091
:10084000FECFFC018281811106C0299A928181E04C
:100850008927828308952998928181E0892782835C
:100860000895FC018281811106C05F9A928181E026
:100870008927828308955F98928181E08927828306
:100880000895FC01A381B48111969C91119781E098
:10089000911101C080E08283811108C084E6129624
:1008A0008C93928181E089278283089580E012965B
:1008B0008C93928181E08927828308950895FC01B9
:1008C000A381B48111969C91119781E0911101C08F
:1008D00080E08283811108C084E612968C93928115
:1008E00081E089278283089580E012968C9392811B
:1008F00081E089278283089508950895089524CD7D
:1009000023CD22CD21CDCF93DF93EBE3F1E0128213
:1009100084E091E0918380832998219AE8E3F1E0D3
:1009200012828EE091E0918380835F98579AA5E3CD
:10093000B1E01C9211961C92119712961C9212977C
:100940002898209AE2E3F1E01082118212822A981C
:10095000229ACDE2D1E01A8288E191E099838883DE
:10096000BC83AB83A8E2B1E012961C92129782E29C
:1009700091E011969C938E931496FC93EE931397AB
:1009800054DDDC01CB01805C9D4BA04FBF4F8093B9
:10099000430190934401A0934501B093460145DD86
:1009A000DC01CB0188519C4FAF4FBF4F80933F017B
:1009B00090934001A0934101B0934201DF91CF9108
:1009C000089591DCB3DD80E090E00895AAAAAAAA78
:1009D0000000000021047E047F04000000003104B8
:1009E0007D048004000000005F047C04810400009A
:0809F000000041045E048204D2
:0400000300000140B8
:00000001FF
