:100000000C9438000C9421090C9421090C942109BA
:100010000C9421090C9421090C9421090C942109B8
:100020000C9421090C9421090C9421090C942109A8
:100030000C9421090C9421090C9421090C94210998
:100040000C940A040C9421090C9421090C942109A4
:100050000C9421090C9421090C9421090C94210978
:100060000C9421090C942109AAAAAAAAAAAAAAAAAC
:10007000CF93DF93CDB7DEB711241FBEC0E0D8E029
:10008000DEBFCDBF89D307D09DD43FD09BD40E9483
:10009000880898D4FECFCF93DF9300D000D000D053
:1000A000CDB7DEB72CE732E080E091E0A901481B34
:1000B000590BCA01959587959A83898380EB93E2C2
:1000C0009E838D83CE0105969C0189819A81880F3C
:1000D000991F80509F4FA901BC0180E091E00E94D0
:1000E000D8081C821B82CE010396AC016CEC72E036
:1000F0008CE792E00E94681126960FB6F894DEBF56
:100100000FBECDBFDF91CF910895CF93DF9300D085
:1001100000D000D0CDB7DEB782E891E09A83898322
:100120001CC089819A81029749D38B8389819A81E6
:10013000019744D38C836C818B810E9452119E83E2
:100140008D838D819E81FC0109958EEF9FEF298122
:100150003A81820F931F9A83898389819A81F1E082
:1001600080389F07F1F626960FB6F894DEBF0FBED3
:10017000CDBFDF91CF910895AAAAAAAAAAAAAAAA36
:10018000EC01CF93DF93CDB7DEB7DF91CF91089528
:10019000CF93DF93CDB7DEB762970FB6F894DEBF8B
:1001A0000FBECDBF82E992E00E949D0A882309F12B
:1001B0008CE792E00E94DB0A8FE792E00E94FB0A44
:1001C0008DE892E00E941B0B81E090E09E878D8776
:1001D000CE010D960E94480ADC01CB018F87988BD7
:1001E000A98BBA8BCE010F96BC0182E992E00E94E6
:1001F000500B8AE992E00E949D0A882351F1809178
:100200009E0291E0980F90939E02682F85E892E0FD
:100210000E947A0B90919E0281E0953609F080E071
:10022000882311F010929E0288EC90E098878F83CB
:10023000CE0107960E94870ADC01CB0189879A8745
:10024000AB87BC87CE010996BC018AE992E00E9487
:10025000500B86E992E00E949D0A8823E9F082E82B
:1002600092E00E94990B8AE892E00E94D20B81E012
:1002700090E09A838983CE0101960E94870ADC016F
:10028000CB018B839C83AD83BE83CE010396BC01DF
:1002900086E992E00E94500B62960FB6F894DEBF9A
:1002A0000FBECDBFDF91CF910895CF93DF93CDB730
:1002B000DEB766970FB6F894DEBF0FBECDBF9C8B3E
:1002C0008B8B7E8B6D8B8B899C898130910509F09E
:1002D00060C08D899E898F3F2FEF920709F059C02A
:1002E0008CE792E00E94A0098FE792E00E94B80993
:1002F00060E082E892E00E94D00985E892E00E94E6
:10030000EF0960E08AE892E00E940C0A8DE892E032
:100310000E942B0A81E090E09E878D87CE010D968A
:100320000E94480ADC01CB018F87988BA98BBA8B7E
:10033000CE010F96BC0182E992E00E94610A81E041
:1003400090E098878F83CE0107960E94870ADC0190
:10035000CB0189879A87AB87BC87CE010996BC0100
:1003600086E992E00E94610A88EE93E09A8389838D
:10037000CE0101960E94870ADC01CB018B839C830E
:10038000AD83BE83CE010396BC018AE992E00E9450
:10039000610A8B899C890097B1F48D899E898F3F72
:1003A0002FEF920781F48DE892E00E94D80D85E846
:1003B00092E00E943E0E8FE792E00E946F0E8CE763
:1003C00092E00E94A00E66960FB6F894DEBF0FBEB4
:1003D000CDBFDF91CF910895CF93DF93CDB7DEB737
:1003E0006FEF7FEF81E090E060DFDF91CF910895C4
:1003F000CF93DF93CDB7DEB76FEF7FEF80E090E074
:1004000054DFDF91CF910895CF93DF93CDB7DEB75F
:1004100080E090E02DD280E090E0ADD2DF91CF91EE
:100420000895CF93DF93CDB7DEB766970FB6F894F4
:10043000DEBF0FBECDBF9E8B8D8B37D2DC01CB01D3
:1004400089879A87AB87BC87CE010996BC01CE010C
:1004500001960E94220FCE010D969E012F5F3F4F05
:10046000B9010E94490FCE0101960E94160F8D8995
:100470009E899E01235F3F4FB9010E94650FCE0107
:100480000D960E94E10E00008D899E8966960FB63A
:10049000F894DEBF0FBECDBFDF91CF910895CF930B
:1004A000DF93CDB7DEB767970FB6F894DEBF0FBE08
:1004B000CDBF9F8B8E8BCE0106969A8389838981CF
:1004C0009A819C838B8329813A818E899F89280F09
:1004D000391FCE010696409641E02817390708F4E7
:1004E00040E04D838D81882341F429813A818E89B2
:1004F0009F89820F931F9A8389838B819C81679642
:100500000FB6F894DEBF0FBECDBFDF91CF91089537
:10051000CF93DF9300D0CDB7DEB79A8389830F9056
:100520000F90DF91CF910895CF93DF93CDB7DEB7D2
:100530000E94F00EFDCFCF93DF9300D0CDB7DEB792
:100540009A83898380E090E00F900F90DF91CF91A4
:100550000895CF93DF9300D0CDB7DEB79A83898318
:1005600080E090E00F900F90DF91CF910895CF93AE
:10057000DF9300D0CDB7DEB79A8389830E94F00E57
:10058000FDCFCF93DF9300D0CDB7DEB79A838983B9
:100590000E94F00EFDCFCF93DF9300D0CDB7DEB732
:1005A0009A83898380E090E0E2DFCF93DF9300D0ED
:1005B000CDB7DEB79A8389838FEF9FEF0F900F90AF
:1005C000DF91CF910895CF93DF9300D0CDB7DEB701
:1005D0009A83898381E090E00F900F90DF91CF9113
:1005E0000895CF93DF9300D000D000D0CDB7DEB711
:1005F0009A8389837C836B835E834D8380E090E064
:1006000026960FB6F894DEBF0FBECDBFDF91CF9117
:100610000895CF93DF9300D000D000D0CDB7DEB7E0
:100620009A8389837C836B835E834D838FEF9FEFF7
:1006300026960FB6F894DEBF0FBECDBFDF91CF91E7
:100640000895CF93DF9300D0CDB7DEB79A83898327
:100650008FEF9FEF0F900F90DF91CF910895CF9381
:10066000DF9300D000D000D0CDB7DEB79A83898366
:100670007C836B835E834D8380E090E026960FB68B
:10068000F894DEBF0FBECDBFDF91CF910895CF9319
:10069000DF9300D000D000D0CDB7DEB79A83898336
:1006A0007C836B835E834D8380E090E026960FB65B
:1006B000F894DEBF0FBECDBFDF91CF910895CF93E9
:1006C000DF9300D000D0CDB7DEB79A8389837C83D7
:1006D0006B8380E090E00F900F900F900F90DF9170
:1006E000CF910895CF93DF9300D0CDB7DEB79A8333
:1006F000898380E090E00F900F90DF91CF91089573
:10070000CF93DF93CDB7DEB781E090E0DF91CF915B
:100710000895CF93DF9300D000D0CDB7DEB79A8392
:1007200089837C836B838FEF9FEF0F900F900F90E7
:100730000F90DF91CF910895CF93DF93CDB7DEB7C0
:10074000DF91CF910895CF93DF93CDB7DEB7289790
:100750000FB6F894DEBF0FBECDBF9A8389837C832A
:100760006B835E834D8338872F8380E090E02896EB
:100770000FB6F894DEBF0FBECDBFDF91CF910895C5
:10078000CF93DF9300D0CDB7DEB79A8389830F90E4
:100790000F90DF91CF910895CF93DF93CDB7DEB760
:1007A00080E090E0F6D080E090E00E945B1080E076
:1007B00090E00E944F10DF91CF910895CF93DF9387
:1007C000CDB7DEB727970FB6F894DEBF0FBECDBF0B
:1007D0009F838E838E819F819A83898389819A8169
:1007E0009C838B838B819C81FC0184918D838D8183
:1007F00027960FB6F894DEBF0FBECDBFDF91CF9125
:100800000895CF93DF93CDB7DEB783EA92E0DF910F
:10081000CF9108951F920F9200905F000F921124C4
:100820008F939F93AF93BF93CF93DF93CDB7DEB7F3
:1008300080919F029091A002A091A102B091A2028A
:1008400080589F4FAF4FBF4F80939F029093A0025D
:10085000A093A102B093A202DF91CF91BF91AF917B
:100860009F918F910F9000925F000F901F901895AD
:10087000CF93DF9300D0CDB7DEB79A838983C1DFF2
:10088000FC01908181E08927882351F00E94671044
:100890000E9473100E947F10B4DF21E0FC012083CE
:1008A0000F900F90DF91CF910895CF93DF93CDB745
:1008B000DEB72A970FB6F894DEBF0FBECDBFA1DF1B
:1008C000FC018081882309F448C00E948B10898331
:1008D00080919F029091A002A091A102B091A202EA
:1008E0008A839B83AC83BD830E948B108E839E8101
:1008F0008981981798F08981882F90E001969695C4
:100900008795282F30E040E050E08A819B81AC81C0
:10091000BD81822B932BA42BB52B16C08E81882FE3
:1009200090E0019696958795282F30E040E050E0C2
:1009300080919F029091A002A091A102B091A20289
:10094000822B932BA42BB52B8F839887A987BA87EB
:100950008F819885A985BA8503C080E090E0DC018D
:10096000BC01CD012A960FB6F894DEBF0FBECDBFF5
:10097000DF91CF910895CF93DF9300D0CDB7DEB74D
:100980009A8389830E9496100F900F90DF91CF91E8
:100990000895CF93DF9300D01F92CDB7DEB79B832E
:1009A0008A830E949E10898389810E94A910A8953C
:1009B0000E94B4100E94C0100F900F900F90DF9112
:1009C000CF910895CF93DF93CDB7DEB7A895DF9190
:1009D000CF910895CF93DF93CDB7DEB78CEA92E045
:1009E0000E94D410DF91CF910895CF92DF92EF92C1
:1009F000FF920F931F93CF93DF93CDB7DEB760972E
:100A00000FB6F894DEBF0FBECDBF84EA92E0FC01C2
:100A10008081882309F052C085EE90E0A0E0B0E02C
:100A20008D879E87AF87B88BCE010D960E94F810F8
:100A30006B017C018AEF90E0A0E0B0E089879A87A3
:100A4000AB87BC87CE0109960E94F810DC01CB0170
:100A50008C019D0148EC50E061EC70E08CEA92E082
:100A6000EAD18DE192E0A0E0B0E08D839E83AF8378
:100A7000B887CE0105960E94F8106B017C0180E2D8
:100A80009EE4A0E0B0E089839A83AB83BC83CE016F
:100A900001960E94F810DC01CB018C019D0141E818
:100AA00058E06AE778E08BEB92E0C5D184EA92E007
:100AB00021E0FC0120838AEE94E03DDD8CEA92E0A7
:100AC00060960FB6F894DEBF0FBECDBFDF91CF9119
:100AD0001F910F91FF90EF90DF90CF900895CF93EB
:100AE000DF9300D000D0CDB7DEB79A8389837C83B3
:100AF0006B838B819C815BD20F900F900F900F9036
:100B0000DF91CF910895CF93DF9300D000D0CDB780
:100B1000DEB79A8389837C836B838B819C815AD2D5
:100B20000F900F900F900F90DF91CF910895EF925B
:100B3000FF920F931F93CF93DF9300D000D0CDB7D8
:100B4000DEB753DF0E941B118C014FDF0E940D1195
:100B50004E2DB801D1D0BFD248DF0E941B118C01AD
:100B600044DF0E940D114F2DB801E4D09A83898390
:100B70003CDF0E941B119C0141E089819A8128176A
:100B8000390709F040E0442309F0ACD2E5CFCF9318
:100B9000DF9300D000D000D0CDB7DEB79C838B832D
:100BA0007E836D838B819C81823091052CF51DDFC6
:100BB0000E940D11AC012B813C816FE0629FC0014E
:100BC000639F900D1124840F951F9A8389830E943F
:100BD000CC1089819A81FC01248535858D819E8187
:100BE000FC0180819181282B392B89819A81FC011C
:100BF000358724870E94961026960FB6F894DEBF9C
:100C00000FBECDBFDF91CF910895CF93DF9300D07A
:100C100000D000D0CDB7DEB79E838D8330D29A83CB
:100C20008983E3DE0E941B119C0141E089819A8146
:100C30002817390709F440E0442399F00E94CC10AA
:100C400089819A81FC01848595859C838B830E9490
:100C500096102B813C818D819E81FC013183208304
:100C600005C08D819E81FC011182108226960FB6EF
:100C7000F894DEBF0FBECDBFDF91CF910895CF9323
:100C8000DF9300D000D000D0CDB7DEB79E838D8338
:100C9000F6D19A838983A9DE0E941B119C0141E051
:100CA00089819A812817390709F440E04423D9F053
:100CB0008D819E81FC0180819181809590959C839E
:100CC0008B830E94CC108B819C8129813A81F90110
:100CD000248535852823392389819A81FC0135872C
:100CE00024870E94961026960FB6F894DEBF0FBE9A
:100CF000CDBFDF91CF9108951F93CF93DF9300D0A5
:100D000000D01F92CDB7DEB79A8389837C836B8333
:100D10004D832B813C8189819A81452FB90125D052
:100D2000812F0F900F900F900F900F90DF91CF9128
:100D30001F910895CF93DF9300D000D01F92CDB7BD
:100D4000DEB79A8389837C836B834D832B813C81BF
:100D500089819A81452FB90132D00F900F900F9061
:100D60000F900F90DF91CF9108951F93CF93DF9352
:100D700000D000D01F92CDB7DEB79A8389837C83E1
:100D80006B834D830BC029813A81CE010596B90151
:100D9000A6DE89819A810F969A83898329813A8177
:100DA0008B819C812817390771F7812F0F900F9045
:100DB0000F900F900F90DF91CF911F910895CF93D7
:100DC000DF9300D000D01F92CDB7DEB79A8389831E
:100DD0007C836B834D8305C089819A810F969A83AA
:100DE000898329813A818B819C812817390769F091
:100DF00029813A81CE010596B90185DE982F81E0DF
:100E00008927882311F081E001C080E0882321F741
:100E100089819A810F900F900F900F900F90DF9122
:100E2000CF910895CF93DF93CDB7DEB78AEC92E0F0
:100E3000DF91CF910895CF92DF92EF92FF920F93BF
:100E40001F93CF93DF93CDB7DEB72E970FB6F894ED
:100E5000DEBF0FBECDBF9A8389837C836B835E83A5
:100E60004D830F83188729873A87CB86DC86ED86EA
:100E7000FE8689819A812B813C81FC01318320830C
:100E800089819A812D813E81FC01338322832981CE
:100E90003A818F819885A985BA85F90184839583E4
:100EA000A683B78389819A8108969E01255F3F4F6B
:100EB000B90107D389819A81FC0115861486B2DFB6
:100EC000FC01208189819A81FC012687ABDFFC012E
:100ED00020812F5FFC0120832E960FB6F894DEBF91
:100EE0000FBECDBFDF91CF911F910F91FF90EF907B
:100EF000DF90CF900895CF93DF9300D000D0CDB78F
:100F0000DEB79A8389837C836B838B819C81FC0110
:100F10002081318189819A81FC01318320838B81F9
:100F20009C81FC012281338189819A81FC01338378
:100F300022838B819C81FC0184819581A681B7816C
:100F400029813A81F90184839583A683B7838B81B4
:100F50009C819C01285F3F4F89819A810896B90145
:100F60000E942A118B819C81FC0124853585898111
:100F70009A81FC01358724878B819C81FC01268521
:100F800089819A81FC0126870F900F900F900F9016
:100F9000DF91CF910895CF93DF9300D0CDB7DEB727
:100FA0009A8389830F900F90DF91CF910895CF930B
:100FB000DF9300D0CDB7DEB79A83898389819A8188
:100FC000FC0180819181FC0109950F900F90DF91C8
:100FD000CF910895CF93DF9300D000D0CDB7DEB787
:100FE0009C838B838B819C81FC018485958521E08A
:100FF000009709F420E029838981882379F012DFA2
:101000009C018B819C81FC018685F90180838B8109
:101010009C81FC0182819381FC0109958B819C81DB
:1010200008968BD28A838A818823C9F08B819C8120
:101030009C012C5F3F4F8B819C810896B90130D376
:10104000F1DE9C018B819C81FC018685F901808306
:101050008B819C81FC0182819381FC0109958981AE
:10106000882319F48A81882311F081E001C080E08F
:101070000F900F900F900F90DF91CF910895CF9325
:10108000DF9300D0CDB7DEB7CDDEFC018081882FA5
:1010900090E09A838983A9DC0E9449119C0189818F
:1010A0009A818217930778F4A0DC0E940D11AC019D
:1010B00029813A816FE0629FC001639F900D1124E6
:1010C000840F951F03C091DC0E941B110F900F909D
:1010D000DF91CF910895CF93DF93CDB7DEB7DF9146
:1010E000CF910895CF93DF93CDB7DEB76BDCDF915F
:1010F000CF910895CF93DF93CDB7DEB7DF91CF9136
:101100000895CF93DF93CDB7DEB7DF91CF910895E8
:10111000CF93DF93CDB7DEB777D909DD80E090E0DC
:10112000DF91CF910895CF93DF9300D000D000D00E
:10113000CDB7DEB79C838B837E836D838B819C814F
:10114000FC0180819181FC018081918137DB898361
:101150008B819C81FC0180819181FC018081918146
:1011600001962CDB8A836A8189810E9452119C013D
:101170008D819E81FC01318320838B819C81FC01C8
:10118000808191812B813C81F90120813181F9019C
:10119000208131812E5F3F4FFC01318320832696D1
:1011A0000FB6F894DEBF0FBECDBFDF91CF9108958B
:1011B000CF93DF9300D000D000D0CDB7DEB79A83B5
:1011C00089837C836B835E834D834D815E812B811C
:1011D0003C8189819A81B90109D026960FB6F8948D
:1011E000DEBF0FBECDBFDF91CF910895CF93DF93C8
:1011F00000D000D000D0CDB7DEB79A8389837C833E
:101200006B835E834D830BC029813A81CE010596A5
:10121000B90189DF89819A8102969A83898329811C
:101220003A818B819C812817390771F78D819E81C6
:1012300026960FB6F894DEBF0FBECDBFDF91CF91DB
:1012400008951F920F9200905F000F9211242F9328
:101250003F934F935F936F937F938F939F93AF933E
:10126000BF93EF93FF93CF93DF93CDB7DEB7B8D59E
:10127000FECFCF93DF9300D0CDB7DEB79A838983BB
:1012800089819A8126E732E0FC013183208380E066
:1012900090E0009719F089819A813AD90F900F90C8
:1012A000DF91CF910895CF93DF9300D0CDB7DEB714
:1012B0009A83898389819A81DCDF89819A8128D9FF
:1012C0000F900F90DF91CF910895CF93DF9300D0CF
:1012D000CDB7DEB79A83898389819A8126E732E088
:1012E000FC013183208389819A81FC0112820F9055
:1012F0000F90DF91CF910895CF93DF9300D0CDB7BA
:10130000DEB79A83898389819A81FC0180810F905D
:101310000F90DF91CF910895CF93DF9300D01F926C
:10132000CDB7DEB79A8389836B8389819A812B81BC
:10133000FC0120830F900F900F90DF91CF910895C3
:10134000CF93DF9300D0CDB7DEB79A8389838981AD
:101350009A81BBDF89819A812CE632E0FC013183DE
:10136000208359D260D20F900F90DF91CF910895D2
:10137000CF93DF9300D0CDB7DEB79A83898389817D
:101380009A81A3DF89819A8122E632E0FC013183D0
:10139000208351D258D20F900F90DF91CF910895B2
:1013A000CF93DF9300D01F92CDB7DEB79A838983A6
:1013B0006B8389819A81FC01108289819A812B81BA
:1013C000FC01218389819A812B81FC01228343D2F4
:1013D0004AD20F900F900F90DF91CF910895CF9345
:1013E000DF9300D0CDB7DEB79A83898389819A8154
:1013F0006CDF89819A8128E532E0FC01318320830A
:1014000089819A8122E832E0FC01348323830F90A2
:101410000F90DF91CF910895CF93DF9300D01F926B
:10142000CDB7DEB79A8389836B8389819A81FC016A
:10143000108289819A812B81FC01218389819A8183
:101440002B81FC01228317D21ED20F900F900F9098
:10145000DF91CF910895CF93DF9300D0CDB7DEB762
:101460009A83898389819A8130DF89819A812EE4E8
:1014700032E0FC013183208389819A812AE832E0BD
:10148000FC01348323830F900F90DF91CF91089557
:10149000CF93DF9300D0CDB7DEB79A83898389815C
:1014A0009A81F9D19B01AC0188EE93E0DC0162D70F
:1014B000DC01CB01BC01CD010F900F90DF91CF91EA
:1014C0000895CF93DF9300D000D0CDB7DEB79A83D5
:1014D00089837C836B83F8D19B01AC018B819C81D8
:1014E000FC0180819181A281B381820F931FA41F8F
:1014F000B51F29813A81F90180839183A283B38347
:101500000F900F900F900F90DF91CF910895CF9390
:10151000DF9300D0CDB7DEB79A83898389819A8122
:10152000FC0180819181CC01A0E0B0E0BC01CD0143
:101530000F900F90DF91CF910895EF92FF920F934C
:101540001F93CF93DF9300D000D000D0CDB7DEB78C
:101550009E838D83B9D19B01AC018D819E81FC015D
:1015600080819181A281B38179018A01E81AF90A07
:101570000A0B1B0BD801C70189839A83AB83BC83F9
:1015800089819A81AB81BC8180959095A095B09519
:101590008827B7FD83959927AA27BB2726960FB6DC
:1015A000F894DEBF0FBECDBFDF91CF911F910F9199
:1015B000FF90EF900895CF93DF9300D0CDB7DEB7C3
:1015C0009A83898389819A81FC018281882311F021
:1015D00022D101C086D189819A81FC01928181E06A
:1015E000292F282789819A81FC0122830F900F904F
:1015F000DF91CF910895CF93DF9300D0CDB7DEB7C1
:101600009A83898389819A81FC018281882311F0E0
:1016100012D101C06ED189819A81FC01928181E051
:10162000292F282789819A81FC0122830F900F900E
:10163000DF91CF910895CF93DF9300D0CDB7DEB780
:101640009A83898389819A81FC018381948159D10C
:1016500021E0882309F420E089819A81FC0122831A
:1016600089819A81FC018281882311F020E001C0E8
:1016700024E689819A81FC0183819481622F51D172
:1016800089819A81FC01928181E0292F2827898113
:101690009A81FC0122830F900F90DF91CF910895E2
:1016A000CF93DF9300D000D0CDB7DEB79A83898384
:1016B0007C836B8389819A81FC0120813181428105
:1016C00053818B819C81FC0180819181A281B381B6
:1016D000820F931FA41FB51F29813A81F9018083CE
:1016E0009183A283B3830F900F900F900F90DF919F
:1016F000CF910895CF93DF9300D01F92CDB7DEB77F
:101700009A8389836B8389819A81FC018381948187
:101710006B8127D121E08B81882309F420E0898126
:101720009A81FC0122830F900F900F90DF91CF914F
:101730000895CF93DF9300D0CDB7DEB79A83898326
:1017400089819A81FC01808121E0280F89819A8119
:10175000FC01208389819A81FC01208189819A8101
:10176000FC01918181E0921708F480E0882311F058
:1017700018D101C070D089819A81FC0180818436A2
:1017800060F089819A81FC01228189819A81FC0122
:10179000218389819A81FC0110820F900F90DF9143
:1017A000CF910895CF93DF9300D0CDB7DEB79A8362
:1017B000898389819A81FC01808121E0280F8981B8
:1017C0009A81FC01208389819A81FC012081898191
:1017D0009A81FC01918181E0921708F480E08823CE
:1017E00011F0E7D001C047D089819A81FC01808146
:1017F000843660F089819A81FC01228189819A81F5
:10180000FC01218389819A81FC0110820F900F9045
:10181000DF91CF910895CF93DF93CDB7DEB7D1D0CD
:10182000DF91CF910895CF93DF93CDB7DEB7D9D0B5
:10183000DF91CF910895CF93DF93CDB7DEB7E1D09D
:10184000DF91CF910895CF93DF93CDB7DEB7E9D085
:10185000DF91CF910895CF93DF93CDB7DEB7F1D06D
:10186000DF91CF910895CF93DF93CDB7DEB7F9D055
:10187000DF91CF910895CF93DF93CDB7DEB701D13C
:10188000DF91CF910895CF93DF93CDB7DEB709D124
:10189000DF91CF910895CF93DF9300D0CDB7DEB71E
:1018A0009A83898389819A8132DE9B01AC0188EE1B
:1018B00093E0DC015FD5DC01CB01BC01CD010F90D1
:1018C0000F90DF91CF910895CF93DF93CDB7DEB71F
:1018D0000E945504DC01CB01BC01CD01DF91CF9109
:1018E0000895CF93DF93CDB7DEB7EBD0DF91CF91E3
:1018F0000895CF93DF93CDB7DEB7F3D0DF91CF91CB
:101900000895CF93DF9300D0CDB7DEB79A83898354
:1019100089819A810196F0DC0F900F90DF91CF9131
:101920000895CF93DF9300D000D0CDB7DEB79B836F
:101930008A836C8384E68983CE0104969E012F5F9F
:101940003F4FB901DED0FC0120818A819B81029644
:10195000622FE2DC0F900F900F900F90DF91CF91EC
:101960000895CF93DF9300D000D0CDB7DEB79B832F
:101970008A836C8384E68983CE0104969E012F5F5F
:101980003F4FB901BED0FC0120818A819B81029624
:10199000622FC2DC0F900F900F900F90DF91CF91CC
:1019A0000895CF93DF93CDB7DEB7C2D0DF91CF914B
:1019B0000895CF93DF93CDB7DEB7CAD0DF91CF9133
:1019C0000895CF93DF93CDB7DEB785E290E025E2AF
:1019D00030E0F90120812D7FFC012083DF91CF9140
:1019E0000895CF93DF93CDB7DEB784E290E024E291
:1019F00030E0F90120812260FC012083DF91CF914A
:101A00000895CF93DF93CDB7DEB78BE290E02BE262
:101A100030E0F90120812F77FC012083DF91CF9105
:101A20000895CF93DF93CDB7DEB78AE290E02AE244
:101A300030E0F90120812068FC012083DF91CF9103
:101A40000895CF93DF93CDB7DEB785E290E025E22E
:101A500030E0F90120812E7FFC012083DF91CF91BE
:101A60000895CF93DF93CDB7DEB784E290E024E210
:101A700030E0F90120812160FC012083DF91CF91CA
:101A80000895CF93DF93CDB7DEB785E290E025E2EE
:101A900030E0F90120812B7FFC012083DF91CF9181
:101AA0000895CF93DF93CDB7DEB784E290E024E2D0
:101AB00030E0F90120812460FC012083DF91CF9187
:101AC0000895CF93DF93CDB7DEB785E290E025E2AE
:101AD00030E0F90120812260FC012083DF91CF9169
:101AE0000895CF93DF93CDB7DEB78BE290E02BE282
:101AF00030E0F90120812068FC012083DF91CF9143
:101B00000895CF93DF9300D000D0CDB7DEB79A838E
:101B100089837C836B832B813C8189819A81B90184
:101B200027D00F900F900F900F90DF91CF910895D5
:101B3000CF93DF93CDB7DEB785E290E025E230E0CA
:101B4000F90120812160FC012083DF91CF9108956C
:101B5000CF93DF93CDB7DEB785E290E025E230E0AA
:101B6000F90120812460FC012083DF91CF91089549
:101B7000CF93DF9300D000D0CDB7DEB79A838983AF
:101B80007C836B8389819A81FC0120818B819C817C
:101B9000FC018081281718F489819A8102C08B8109
:101BA0009C810F900F900F900F90DF91CF9108952F
:101BB000CF93DF9300D0CDB7DEB79A838983898135
:101BC0009A812EE432E0FC013183208389819A815D
:101BD00050DB80E090E0009721F089819A810E949B
:101BE00088020F900F90DF91CF910895CF93DF93EC
:101BF00000D0CDB7DEB79A83898389819A81D8DFF7
:101C000089819A810E9488020F900F90DF91CF9175
:101C10000895CF93DF9300D0CDB7DEB79A83898341
:101C200089819A81FC0183819481BBD021E0882342
:101C300009F420E089819A81FC01228389819A81BB
:101C4000FC018281882311F020E001C024E6898113
:101C50009A81FC0183819481622F83DE89819A813C
:101C6000FC01928181E0292F282789819A81FC013A
:101C700022830F900F90DF91CF910895CF93DF9340
:101C800000D0CDB7DEB79A83898389819A8128E510
:101C900032E0FC013183208389819A81EADA80E095
:101CA00090E0009721F089819A810E9488020F902C
:101CB0000F90DF91CF910895CF93DF9300D0CDB7F0
:101CC000DEB79A83898389819A81D8DF89819A8155
:101CD0000E9488020F900F90DF91CF910895CF93CB
:101CE000DF9300D0CDB7DEB79A83898389819A814B
:101CF00022E632E0FC013183208389819A81B9DABE
:101D000080E090E0009721F089819A810E9488020A
:101D10000F900F90DF91CF910895CF93DF9300D074
:101D2000CDB7DEB79A83898389819A81D8DF89818B
:101D30009A810E9488020F900F90DF91CF910895B1
:101D4000CF93DF9300D0CDB7DEB79A8389838981A3
:101D50009A812CE632E0FC013183208389819A81CB
:101D600088DA80E090E0009721F089819A810E94D2
:101D700088020F900F90DF91CF910895CF93DF935A
:101D800000D0CDB7DEB79A83898389819A81D8DF65
:101D900089819A810E9488020F900F90DF91CF91E4
:101DA0000895CF93DF9300D0CDB7DEB79A838983B0
:101DB00089819A810196A0DA0F900F90DF91CF91DF
:101DC0000895CF93DF9300D0CDB7DEB79A83898390
:101DD00089819A812BD00F900F90DF91CF91089538
:101DE000CF93DF93CDB7DEB70000DF91CF91089599
:101DF000CF93DF9300D000D0CDB7DEB79A8389832D
:101E00007C836B8389819A812B813C8148E0F90135
:101E1000DC0101900D924A95E1F789819A810F903A
:101E20000F900F900F90DF91CF910895CF93DF9394
:101E300000D0CDB7DEB79A8389830F900F90DF91E2
:101E4000CF910895CF93DF9300D000D0CDB7DEB708
:101E50009A8389837C836B838B819C81FC01808145
:101E60009181A281B3819C01AD0160E070E0CB0162
:101E7000E981FA81208331834283538364837583AC
:101E8000868397830F900F900F900F90DF91CF91E3
:101E90000895CF93DF9300D000D0CDB7DEB79A83FB
:101EA00089837C836B8389819A812B813C8148E083
:101EB000F901DC0101900D924A95E1F70F900F9026
:101EC0000F900F90DF91CF910895CF93DF93CDB70F
:101ED000DEB764970FB6F894DEBF0FBECDBF9A8B06
:101EE000898B7C8B6B8B8B899C89BC01CE01019685
:101EF0007FDFCE0109969E012F5F3F4FB90118D0B9
:101F00009E01275F3F4F89899A89B901C2DFCE01BF
:101F100009968CDFCE01019689DF89899A896496BA
:101F20000FB6F894DEBF0FBECDBFDF91CF910895FD
:101F3000CF93DF9300D000D0CDB7DEB79A838983EB
:101F40007C836B8389819A812B813C81B9013FD04D
:101F500089819A810F900F900F900F90DF91CF9110
:101F60000895AF92BF92CF92DF92EF92FF920F93BC
:101F70001F93CF93DF9300D0CDB7DEB79A838983C9
:101F8000E981FA81208131814281538164817581A7
:101F900086819781A22EB32EC42ED52EE62EF72E43
:101FA000082F192F2A2D3B2D4C2D5D2D6E2D7F2DA9
:101FB000802F912F0F900F90DF91CF911F910F9154
:101FC000FF90EF90DF90CF90BF90AF900895AF92C9
:101FD000BF92CF92DF92EF92FF920F931F93CF9316
:101FE000DF93CDB7DEB72C970FB6F894DEBF0FBEE8
:101FF000CDBF9A8789877C876B878B859C85B1DF6E
:10200000A22EB32EC42ED52EE62EF72E082F192F72
:10201000A982BA82CB82DC82ED82FE820F8318878E
:1020200089859A859E012F5F3F4FB90113D089851D
:102030009A852C960FB6F894DEBF0FBECDBFDF9108
:10204000CF911F910F91FF90EF90DF90CF90BF90B5
:10205000AF900895CF93DF9300D000D0CDB7DEB717
:102060009A8389837C836B83EB81FC81208131811E
:10207000428153816481758186819781E981FA81EA
:10208000208331834283538364837583868397835C
:102090000F900F900F900F90DF91CF910895CF93F5
:1020A000DF9300D0CDB7DEB79A8389830F900F906E
:1020B000DF91CF910895CF93DF9300D0CDB7DEB7F6
:1020C0009A8389830F900F90DF91CF910895CF93DA
:1020D000DF93CDB7DEB785E390E021E0FC012083FC
:1020E000DF91CF910895CF93DF93CDB7DEB78EE622
:1020F00090E021E0FC012083DF91CF910895CF9300
:10210000DF93CDB7DEB785E490E022E0FC012083C9
:10211000DF91CF910895CF93DF93CDB7DEB786E4FB
:1021200090E0FC018081DF91CF910895CF93DF9300
:10213000CDB7DEB77894DF91CF910895CF93DF9339
:10214000CDB7DEB784E390E0FC018081DF91CF91D1
:102150000895CF93DF93CDB7DEB784E390E0FC0121
:102160001082DF91CF910895CF93DF93CDB7DEB783
:1021700080E690E028E1FC012083DF91CF91089573
:10218000CF93DF93CDB7DEB780E690E02BE0FC0184
:102190002083DF91CF910895CF93DF93CDB7DEB742
:1021A000F894DF91CF9108950F931F93CF93DF930E
:1021B00000D0CDB7DEB79A83898389819A81009751
:1021C00081F089819A818C01025E1F4F89819A81F9
:1021D0000817190731F00F501109C8010E94CB07E9
:1021E000F5CF0F900F90DF91CF911F910F91089530
:1021F000CF93DF9300D0CDB7DEB79A8389838981EF
:102200009A81FC0180819181A281B381BC01CD01C1
:102210000F900F90DF91CF910895CF93DF9300D06F
:10222000CDB7DEB79A83898389819A810F900F9009
:10223000DF91CF910895CF93DF9300D0CDB7DEB774
:102240009A83898389819A814E960F900F90DF91AE
:10225000CF910895CF93DF9300D000D0CDB7DEB7F4
:102260009A8389837C836B838B819C81FC01808131
:102270009181A281B38129813A81F901808391837F
:10228000A283B3830F900F900F900F90DF91CF91A7
:102290000895CF93DF93CDB7DEB782E090E0DF9172
:1022A000CF910895CF93DF9300D0CDB7DEB7898368
:1022B0006A838A81882F90E0382F22278981882F8E
:1022C00090E0822B932B0F900F90DF91CF91089588
:1022D000CF93DF9300D000D000D0CDB7DEB79A8384
:1022E00089837C836B835E834D834D815E812B81EB
:1022F0003C8189819A81B90109D026960FB6F8945C
:10230000DEBF0FBECDBFDF91CF910895CF93DF9396
:10231000CDB7DEB728970FB6F894DEBF0FBECDBF9E
:102320009C838B837E836D8358874F838F819885B1
:10233000FC01808191819A8389830CC08B819C816F
:1023400029813A81FC01318320838B819C81029613
:102350009C838B832B813C818D819E81281739073B
:1023600069F728960FB6F894DEBF0FBECDBFDF9198
:10237000CF91089509D0A59F900DB49F900DA49F73
:10238000800D911D11240895A29FB001B39FC0013B
:10239000A39F700D811D1124911DB29F700D811D91
:1023A0001124911D0895AAAAAAAAAAAAAAAAAAAA09
:1023B00020010204081020408034642324252627AD
:1023C00028292A2B2C2D2E35444546476E368081F0
:1023D0008485886F37B0B1B2B3704C4D4E60200128
:1023E000020408102040803464232425262728294D
:1023F0002A2B2C2D2E35444546476E368081848508
:10240000886F37B0B1B2B3704C4D4E600000000021
:1024100000000020010204081020408034642324BE
:1024200025262728292A2B2C2D2E35444546476E54
:102430003680818485886F37B0B1B2B3704C4D4E11
:1024400060200102040810204080346423242526E3
:102450002728292A2B2C2D2E35444546476E3680B9
:10246000818485886F37B0B1B2B3704C4D4E602017
:1024700001020408102040803464232425262728E4
:10248000292A2B2C2D2E35444546476E36808184D3
:1024900085886F37B0B1B2B3704C4D4E60200102E9
:1024A0000408102040803464232425262728292A64
:1024B0002B2C2D2E35444546476E368081848588E9
:1024C0006F37B0B1B2B3704C4D4E602001020408BA
:1024D000102040803464232425262728292A2B2CE9
:1024E0002D2E35444546476E3680818485886F376A
:1024F000B0B1B2B3704C4D4E6000000000001B0B39
:10250000D80DF60D00000000090E3E0E5C0E000016
:102510000000FB0A6F0E8D0E00000000DB0AA00E0B
:0C252000BE0E000000009C030000000044
:040000030000018078
:00000001FF
